S0180000566964656F47616D65436F6E736F6C652E73726563C8
S1130000F9C000001BC1000019C1000017C10000A5
S113001015C1000013C1000011C100000FC1000090
S11300200DC100000BC1000009C1000007C10000A0
S113003005C1000003C1000002C50000FFC00000AC
S113004084C400009DC40000D2C40000F7C00000B6
S1130050F5C00000F3C00000F1C00000EFC00000D4
S1130060EDC00000EBC00000E9C00000E7C00000E4
S1130070E5C00000E3C00000E1C00000DFC00000F4
S1130080DDC00000DBC00000D9C00000D7C0000004
S1130090D5C00000D3C00000D1C00000CFC0000014
S11300A0CDC00000CBC00000C9C00000C7C0000024
S11300B0C5C00000C3C00000C1C000002FC30000C1
S11300C0BDC00000BBC00000B9C00000B7C0000044
S11300D0B5C00000B3C00000B1C00000AFC0000054
S11300E0ADC00000ABC00000A9C00000A7C0000064
S11300F0A5C00000A3C00000A1C000009FC0000074
S11301009DC000009BC0000099C0000097C0000083
S113011095C0000093C0000091C000008FC0000093
S11301208DC000008BC0000089C0000087C00000A3
S113013085C00000C4C4000081C000007FC000006E
S11301407DC000007BC0000079C0000077C00000C3
S113015075C0000073C0000071C000006FC00000D3
S11301606DC000006BC0000069C0000067C00000E3
S113017065C0000063C0000061C000005FC00000F3
S11301805DC000005BC0000059C0000057C0000003
S113019055C0000053C0000051C000004FC0000013
S11301A04DC000004BC0000049C0000047C0000023
S11301B045C0000043C0000041C000003FC0000033
S11301C03DC000003BC0000039C0000037C0000043
S11301D035C0000033C0000031C000002FC0000053
S11301E02DC000002BC0000029C0000027C0000063
S11301F025C0000011241FBECFEFCDBFDFE3DEBF5B
S113020000E00CBF18BE19BE1ABE1BBE12E2A0E06D
S1130210B0E2E4E0FCE000E00BBF02C007900D9206
S1130220AA30B107D9F71BBE22E2AAE0B2E201C0AC
S11302301D92AA38B207E1F778D4E2C4E1CEE82FE0
S1130240F0E0EE0FFF1FE65FFD4D4081453088F47E
S113025021E030E0B90102C0660F771F8A95E2F70A
S11302604F5F4083262D262321F4433010F0762A55
S1130270662A0895E82FF0E0EE0FFF1FE65FFD4DBC
S11302804081442399F021E030E0B90102C0660FB7
S1130290771F8A95E2F7CB0141504083262D262310
S11302A029F0433018F4762A80956822089581E075
S11302B08093E207E0EFF7E08081877C8083808190
S11302C088618083E1EFF7E08081877C808380818F
S11302D08861808308958091680680FF03C080E070
S11302E0AEDF02C080E0C6DF8091680681FF03C0F4
S11302F081E0A5DF02C081E0BDDF8091680682FF56
S113030003C082E09CDF02C082E0B4DF8091680613
S113031083FF03C083E093DF02C083E0ABDF8091FF
S1130320E80780FF03C084E0A5CF089584E087CF69
S1130330089521E030E0A90102C0440F551F8A95B9
S1130340E2F7CA018721089521E030E0A90102C043
S1130350440F551F8A95E2F7CA01942F909579228C
S113036086210895E0E0F0E280E090E07FEF9C01D8
S113037061E0AC0140515109403E510508F460E090
S11303802F70332741E0232B09F040E0462B91F4F2
S11303909C012F703078332334F421503109206FBD
S11303A03F6F2F5F3F4F41E02F30310509F040E0B0
S11303B0442311F0708301C0108201963196811597
S11303C021E09207A1F6089583E08093172210920A
S11303D014220F2EF7E0DF2EF02D0F2EF7E0EF2E74
S11303E0F02DE7E7F0E2E0932122F093222282E06D
S11303F08083E7E8F0E2E0932522F093262293E25B
S1130400908387E08093272228E020932822E7E93D
S1130410F0E2E0932922F0932A22908380932B2206
S113042089E080932C2208951092852210E08FEFAA
S113043080931622109215220895C6DFF5DFE0910D
S11304408522F0E0EE0FFF1FE050FF4DF080E181C8
S11304500E2F80E1E89FF0011124EF0DF11DE05013
S1130460F04E81E080830895813061F028F082307D
S113047019F0833061F406C0909128229E1107C0C0
S1130480182F0895909127229D1101C0182F0895C7
S11304906F927F929F92AF92BF92CF92CF93DF934E
S11304A02D2DCE2C8093232260932422D82EE62E49
S11304B0E82FF0E040E1649FE00DF11D1124E050CD
S11304C0F04EE0932122F093222292E09083922E28
S11304D0AC2C90911722923060F1B62EA7E2B2E2D2
S11304E0E8E2F2E271E063E2AD019C903F01A0809A
S11304F0981205C0AB1003C035DF9FDF39C0EA0195
S11305002883E301C88230E0D0E1CD9E200D311D67
S113051011242050304EE301239728833983E901C5
S113052068837F5F14963496791718F4292DCA2CA2
S1130530DBCF8091142281110AC0D0E1AD9EF0017D
S11305401124E90DF11DE050F04E108211C09931D3
S113055068F4E92FF0E0EE0FFF1FEE0FFF1FEF5DD1
S1130560FD4D9282A3829F5F9093172210921422D2
S1130570DF91CF91CF90BF90AF909F907F906F907D
S11305800895113059F028F0123069F0133081F0D9
S113059008956FEF6E0D8D2D7BCF08956E2D8FEF27
S11305A08D0D76CF089561E06E0D8D2D71CF089578
S11305B06E2D81E08D0D6CCF0895809116228111EE
S11305C03FC0809115228F5F809315229FEF9E0D6F
S11305D09F3020F42FEF2D0D2E3018F0C3DE2DCFD9
S11305E00895DF1026C0E01224C086E092E24ED0C7
S11305F0809185228F5F843118F48093852202C014
S1130600109285228FEF80931422E0918522F0E0EE
S1130610EE0FFF1FE050FF4DF080E1810E2F80E1CF
S1130620E89FF0011124EF0DF11DE050F04E81E040
S11306308083809115228A3018F0A3DF109215224E
S1130640089580911622882319F010921622089595
S11306508FEF809316220895E3EDF7E08081877C85
S11306608083808188618083E2E2F3E08081886016
S11306708083E0E2F3E080818560808381E0809381
S1130680060A1092200A1092210A089580931D22CE
S113069090931E2210921C2210921A2210921B2256
S11306A01092192210921822DC011196ED91FC91FE
S11306B012970180F281E02D80819181809338032B
S11306C090933903A0911D22B0911E2280911C2287
S11306D090E0FC01EE0FFF1FEE0FFF1F8E0F9F1F18
S11306E01196ED91FC911297E80FF91F8091192250
S11306F00180F281E02DB4E08B9FE00DF11D112407
S1130700828193818093260A9093270A1092200A6B
S11307101092210A81E08093000A08951F920F929B
S11307200FB60F92112408B60F9218BE09B60F9295
S113073019BE0BB60F921BBE2F933F934F938F930B
S11307409F93AF93BF93EF93FF93E0911D22F0919A
S11307501E2240911C228081841314C0809118228F
S11307609381891760F41092192210921A22109220
S11307701B2210921C228F5F8093182237C0109284
S1130780000A34C0842F90E09C01220F331F220FF3
S1130790331F820F931F0180F281E02DE80FF91FB0
S11307A0809119229081891720F48F5F80931922F8
S11307B01DC02381348180911A2290911B228217BB
S11307C0930740F4019680931A2290931B2210926F
S11307D019220CC02817390749F44F5F40931C2293
S11307E010921A2210921B2210921922A0911D22FB
S11307F0B0911E2280911C2290E0FC01EE0FFF1F9D
S1130800EE0FFF1F8E0F9F1F1196ED91FC91129713
S1130810E80FF91F809119220180F281E02D94E004
S1130820899FE00DF11D112480819181809338030B
S113083090933903A0911D22B0911E2280911C2215
S113084090E0FC01EE0FFF1FEE0FFF1F8E0F9F1FA6
S11308501196ED91FC911297E80FF91F80911922DE
S11308600180F281E02D94E0899FE00DF11D1124B7
S1130870828193818093260A9093270A1092200AFA
S11308801092210AFF91EF91BF91AF919F918F91A7
S11308904F913F912F910F900BBE0F9009BE0F9077
S11308A008BE0F900FBE0F901F90189580E28093A2
S11308B0B20080EC80BB83E284BB81B3806C81BBDB
S11308C085B38C7D85BB89E193E080932608909362
S11308D0270882E590E0809328089093290888E708
S11308E090E080932A0890932B0889E093E080930A
S11308F02C0890932D0883E0809306088AE2809365
S1130900070883E290E0809326099093270982E008
S1130910809306091092892210921F22109220229D
S113092087E08093882280E090E2809386229093EF
S11309308722089510921F221092202282E0809331
S1130940000881E080930009089578941F920F9223
S11309500FB60F92112408B60F9218BE8F938E9A79
S1130960412C109220091092210981E080930609FC
S11309708F910F9008BE0F900FBE0F901F90189587
S113098078941F920F920FB60F92112408B60F920B
S113099018BE2F938F939F9333243A9480911F22F0
S11309A090912022019680931F229093202280917F
S11309B01F22909120228D30924079F41092060AE1
S11309C080E090E2809386229093872210921F22E7
S11309D01092202281E0809300099F918F912F91A2
S11309E00F9008BE0F900FBE0F901F90189578942B
S11309F01F920F920FB60F92112408B60F9218BED1
S1130A002F938F939F93312C1092060915BA8091DE
S1130A101F22909120228B3E914039F48F9881E0DF
S1130A208093060A8FEF809389229F918F912F9153
S1130A300F9008BE0F900FBE0F901F9018957894DA
S1130A401F920F920FB60F92112408B60F9218BE80
S1130A502F938F939F9310922008109221088FEB6D
S1130A6081BB80911F22909120228F7199274897F2
S1130A7051F0809186229091872284199109809364
S1130A8086229093872280911F2290912022803E7B
S1130A90914019F41092000908C080911F2290918E
S1130AA02022893E914009F48F9A9F918F912F9132
S1130AB00F9008BE0F900FBE0F901F9018951F92B5
S1130AC00F920FB60F92112408B60F9218BE0BB6F0
S1130AD00F921BBE2F938F939F93EF93FF931092CC
S1130AE0200910922109E0918622F09187228081C9
S1130AF0832185BB232D21708091862290918722AA
S1130B00820F911D8093862290938722420EFF913B
S1130B10EF919F918F912F910F900BBE0F9008BE74
S1130B200F900FBE0F901F901895E8E4F0E08081BD
S1130B30817F8083E0EAF6E0818181608183E0E562
S1130B40F0E015828581896185838081806180835D
S1130B50818184FFFDCF88ED84BF84E080934000D1
S1130B6087E0E0EAF0E08283F89476DDA0DB74DDD0
S1130B709DDE789462DCDEDEC8E4D0E088818160AA
S1130B808883889588818E7F8883809189228823B1
S1130B90A9F3109289229FDB10DD84E0CADB88234D
S1130BA021F084E0D1DB81114CDD81E0C2DB8823BC
S1130BB031F081E0C9DB882311F082E055DC80E06C
S1130BC0B8DB882331F080E0BFDB882311F080E0BC
S1130BD04BDC83E0AEDB882331F083E0B5DB882394
S1130BE011F081E041DC82E0A4DB882309F4C6CF64
S1130BF082E0AADB882309F4C1CF83E035DCBECFD1
S1070C00F894FFCF92
S1130C04FFFFFFFFFFFFFFFFFFFFFFFFFFFFFFFFEC
S1130C14FF0000000000000000000000000000FFCE
S1130C24FF0000000000000000000000000000FFBE
S1130C34FF0000000000000000000000000000FFAE
S1130C44FF0000000000000000000000000000FF9E
S1130C54FF0000000000000000000000000000FF8E
S1130C64FF0000000000000000000000000000FF7E
S1130C74FF0000000000000000000000000000FF6E
S1130C84FF0000000000000000000000000000FF5E
S1130C94FF0000000000000000000000000000FF4E
S1130CA4FF0000000000000000000000000000FF3E
S1130CB4FF0000000000000000000000000000FF2E
S1130CC4FF0000000000000000000000000000FF1E
S1130CD4FF0000000000000000000000000000FF0E
S1130CE4FF0000000000000000000000000000FFFE
S1130CF4FFFFFFFFFFFFFFFFFFFFFFFFFFFFFFFFFC
S1130D040D0301080E0A0E02010E030408010B0C64
S1130D140607030B01010E0E0A0603010105080E62
S1130D2402070E0E07090E010CD62108000C7621C9
S1130D340A000CD62108000CA62109000C46210740
S1130D44000C76210A00FF07C602FF0BC602FF0E41
S1130D54C602FF0FC602FF0EC602FF0BC602FF0740
S1130D64C602FF03C602FF00C6020000C602FF005B
S1130D74C602FF03C602FF071402FF0B1402FF0E90
S1130D841402FF0F1402FF0E1402FF0B1402FF07D8
S1130D941402FF031402FF00140200001402FF00F3
S1130DA41402FF031402FF074B02FF0B4B02FF0E56
S1130DB44B02FF0F4B02FF0E4B02FF0B4B02FF07CC
S1130DC44B02FF034B02FF004B0200004B02FF00E7
S1130DD44B02FF034B02FF077B02FF0B7B02FF0E58
S1130DE47B02FF0F7B02FF0E7B02FF0B7B02FF07DC
S1130DF47B02FF037B02FF007B0200007B02FF00F7
S10D0E047B02FF037B020628210194
S9030000FC
